{
  "_format": "hh-sol-artifact-1",
  "contractName": "RewardHub",
  "sourceName": "contracts/rewardHub.sol",
  "abi": [
    {
      "inputs": [],
      "stateMutability": "nonpayable",
      "type": "constructor"
    },
    {
      "anonymous": false,
      "inputs": [
        {
          "indexed": true,
          "internalType": "address",
          "name": "student",
          "type": "address"
        },
        {
          "indexed": false,
          "internalType": "string",
          "name": "title",
          "type": "string"
        },
        {
          "indexed": false,
          "internalType": "uint256",
          "name": "tokens",
          "type": "uint256"
        }
      ],
      "name": "AchievementVerified",
      "type": "event"
    },
    {
      "anonymous": false,
      "inputs": [
        {
          "indexed": true,
          "internalType": "address",
          "name": "student",
          "type": "address"
        },
        {
          "indexed": false,
          "internalType": "uint256",
          "name": "tokens",
          "type": "uint256"
        }
      ],
      "name": "TokensRedeemed",
      "type": "event"
    },
    {
      "inputs": [],
      "name": "admin",
      "outputs": [
        {
          "internalType": "address",
          "name": "",
          "type": "address"
        }
      ],
      "stateMutability": "view",
      "type": "function"
    },
    {
      "inputs": [
        {
          "internalType": "uint256",
          "name": "tokens",
          "type": "uint256"
        }
      ],
      "name": "redeemTokens",
      "outputs": [],
      "stateMutability": "nonpayable",
      "type": "function"
    },
    {
      "inputs": [
        {
          "internalType": "address",
          "name": "",
          "type": "address"
        }
      ],
      "name": "tokenBalance",
      "outputs": [
        {
          "internalType": "uint256",
          "name": "",
          "type": "uint256"
        }
      ],
      "stateMutability": "view",
      "type": "function"
    },
    {
      "inputs": [
        {
          "internalType": "address",
          "name": "student",
          "type": "address"
        },
        {
          "internalType": "uint256",
          "name": "tokens",
          "type": "uint256"
        }
      ],
      "name": "verifyAchievement",
      "outputs": [],
      "stateMutability": "nonpayable",
      "type": "function"
    }
  ],
  "bytecode": "0x6080604052348015600f57600080fd5b50336000806101000a81548173ffffffffffffffffffffffffffffffffffffffff021916908373ffffffffffffffffffffffffffffffffffffffff16021790555061074f8061005f6000396000f3fe608060405234801561001057600080fd5b506004361061004c5760003560e01c8063a6e158f814610051578063eedc966a1461006d578063f2fb6fe51461009d578063f851a440146100b9575b600080fd5b61006b600480360381019061006691906103ad565b6100d7565b005b61008760048036038101906100829190610438565b610200565b6040516100949190610474565b60405180910390f35b6100b760048036038101906100b2919061048f565b610218565b005b6100c161034e565b6040516100ce91906104de565b60405180910390f35b80600160003373ffffffffffffffffffffffffffffffffffffffff1673ffffffffffffffffffffffffffffffffffffffff168152602001908152602001600020541015610159576040517f08c379a000000000000000000000000000000000000000000000000000000000815260040161015090610556565b60405180910390fd5b80600160003373ffffffffffffffffffffffffffffffffffffffff1673ffffffffffffffffffffffffffffffffffffffff16815260200190815260200160002060008282546101a891906105a5565b925050819055503373ffffffffffffffffffffffffffffffffffffffff167fcdd4c59de26b3f8623e6012ab9bc32a995eda3452d89c941fc8af6b74276ad38826040516101f59190610474565b60405180910390a250565b60016020528060005260406000206000915090505481565b60008054906101000a900473ffffffffffffffffffffffffffffffffffffffff1673ffffffffffffffffffffffffffffffffffffffff163373ffffffffffffffffffffffffffffffffffffffff16146102a6576040517f08c379a000000000000000000000000000000000000000000000000000000000815260040161029d9061064b565b60405180910390fd5b80600160008473ffffffffffffffffffffffffffffffffffffffff1673ffffffffffffffffffffffffffffffffffffffff16815260200190815260200160002060008282546102f5919061066b565b925050819055508173ffffffffffffffffffffffffffffffffffffffff167fea7bf8a011e74ecacd7b6f950b28c1607033854a86bc56b39259a7b9506523b78260405161034291906106eb565b60405180910390a25050565b60008054906101000a900473ffffffffffffffffffffffffffffffffffffffff1681565b600080fd5b6000819050919050565b61038a81610377565b811461039557600080fd5b50565b6000813590506103a781610381565b92915050565b6000602082840312156103c3576103c2610372565b5b60006103d184828501610398565b91505092915050565b600073ffffffffffffffffffffffffffffffffffffffff82169050919050565b6000610405826103da565b9050919050565b610415816103fa565b811461042057600080fd5b50565b6000813590506104328161040c565b92915050565b60006020828403121561044e5761044d610372565b5b600061045c84828501610423565b91505092915050565b61046e81610377565b82525050565b60006020820190506104896000830184610465565b92915050565b600080604083850312156104a6576104a5610372565b5b60006104b485828601610423565b92505060206104c585828601610398565b9150509250929050565b6104d8816103fa565b82525050565b60006020820190506104f360008301846104cf565b92915050565b600082825260208201905092915050565b7f4e6f7420656e6f75676820746f6b656e7320746f2072656465656d0000000000600082015250565b6000610540601b836104f9565b915061054b8261050a565b602082019050919050565b6000602082019050818103600083015261056f81610533565b9050919050565b7f4e487b7100000000000000000000000000000000000000000000000000000000600052601160045260246000fd5b60006105b082610377565b91506105bb83610377565b92508282039050818111156105d3576105d2610576565b5b92915050565b7f4f6e6c792061646d696e2063616e2063616c6c20746869732066756e6374696f60008201527f6e00000000000000000000000000000000000000000000000000000000000000602082015250565b60006106356021836104f9565b9150610640826105d9565b604082019050919050565b6000602082019050818103600083015261066481610628565b9050919050565b600061067682610377565b915061068183610377565b925082820190508082111561069957610698610576565b5b92915050565b7f416368696576656d656e74205665726966696564000000000000000000000000600082015250565b60006106d56014836104f9565b91506106e08261069f565b602082019050919050565b60006040820190508181036000830152610704816106c8565b90506107136020830184610465565b9291505056fea2646970667358221220442253ec9c992a9b90c91aafb3c6691aba684bb1e093d55a7a02de0c54c3d0a164736f6c634300081c0033",
  "linkReferences": {},
  "deployedLinkReferences": {}
}